:03000000020003F8
:0C000300787FE4F6D8FD75810802004A01
:0300F50001080AF5
:1000CA00E4FEEEC39F5009E4FD0DBDB4FC0E80F2C0
:0100DA002203
:0D00DB001508E508D39401500375080122B3
:0D00E8000508E508C3946440037508642210
:10008F00C290D291D292D29320A004D290D2922039
:10009F00A104D290C29220A20B7F0A1200CA30A2F2
:1000AF00FD1200DB20A30B7F0A1200CA30A3FD1242
:0B00BF0000E8B293AF081200CA80CD29
:10000F0002008FE493A3F8E493A34003F68001F278
:10001F0008DFF48029E493A3F85407240CC8C333F2
:10002F00C4540F4420C8834004F456800146F6DFC1
:10003F00E4800B01020408102040809000F5E47E5C
:10004F00019360BCA3FF543F30E509541FFEE493B6
:10005F00A360010ECF54C025E060A840B8E493A37D
:10006F00FAE493A3F8E493A3C8C582C8CAC583CAA8
:10007F00F0A3C8C582C8CAC583CADFE9DEE780BE60
:0100F8000007
:00000001FF
