:03000000020003F8
:0C000300787FE4F6D8FD75810902004A00
:0401190002080000D8
:10010700EFD39400400B7E147DF8DDFEDEFA1F80EE
:01011700EFF8
:0101180022C4
:0600EE00B2937F037E00C7
:1000F400E4FDEDC39FE49E5009E4FC0CBCFAFC0D46
:0201040080F089
:0101060022D6
:10008F00C290D291D292D29375080375092020A005
:10009F00FD1200F020A0F7D290D29275080F7509CB
:1000AF00A0E5091509AE08700215084E600512008B
:1000BF00EE80EEC2907F2C120107D290C29275088B
:1000CF00157509E0E5091509AE08700215084E60AF
:0F00DF00051200EE80EEC2907F1412010780B868
:10000F0002008FE493A3F8E493A34003F68001F278
:10001F0008DFF48029E493A3F85407240CC8C333F2
:10002F00C4540F4420C8834004F456800146F6DFC1
:10003F00E4800B0102040810204080900119E47E37
:10004F00019360BCA3FF543F30E509541FFEE493B6
:10005F00A360010ECF54C025E060A840B8E493A37D
:10006F00FAE493A3F8E493A3C8C582C8CAC583CAA8
:10007F00F0A3C8C582C8CAC583CADFE9DEE780BE60
:01011D0000E1
:00000001FF
