:03000000020003F8
:0C000300787FE4F6D8FD75810A02004AFF
:0701060002090000010801DD
:1000F300E4FDEDC39FE49E5009E4FC0CBCFAFC0D47
:0201030080F08A
:0101050022D7
:10008F00C290D291D292D293E508B4011520A0125A
:10009F0020A00FD290750900750A30C29275080220
:1000AF0080EEE508B4021520A11220A10FD29075A1
:1000BF000900750A30D29275080180EEC3E50A94E3
:1000CF0001E50994004011E50A150A70021509B2FD
:1000DF00937F0F7E001200F3E50A6401450970A8B3
:0400EF00C29080A497
:10000F0002008FE493A3F8E493A34003F68001F278
:10001F0008DFF48029E493A3F85407240CC8C333F2
:10002F00C4540F4420C8834004F456800146F6DFC1
:10003F00E4800B0102040810204080900106E47E4A
:10004F00019360BCA3FF543F30E509541FFEE493B6
:10005F00A360010ECF54C025E060A840B8E493A37D
:10006F00FAE493A3F8E493A3C8C582C8CAC583CAA8
:10007F00F0A3C8C582C8CAC583CADFE9DEE780BE60
:01010D0000F1
:00000001FF
