:03000000020003F8
:0C000300787FE4F6D8FD75810902004A00
:0400EE000208000004
:0600D500B2937F037E00E0
:1000DB00E4FDEDC39FE49E5009E4FC0CBCFAFC0D5F
:0200EB0080F0A3
:0100ED0022F0
:10008F00C290D291D292D293750803750920D29063
:10009F00D2927508037509E8E5091509AE087002D3
:1000AF0015084E60051200D580EED290C2927508E9
:1000BF00037509E8E5091509AE08700215084E60C9
:0600CF00CD1200D580EE09
:10000F0002008FE493A3F8E493A34003F68001F278
:10001F0008DFF48029E493A3F85407240CC8C333F2
:10002F00C4540F4420C8834004F456800146F6DFC1
:10003F00E4800B01020408102040809000EEE47E63
:10004F00019360BCA3FF543F30E509541FFEE493B6
:10005F00A360010ECF54C025E060A840B8E493A37D
:10006F00FAE493A3F8E493A3C8C582C8CAC583CAA8
:10007F00F0A3C8C582C8CAC583CADFE9DEE780BE60
:0100F200000D
:00000001FF
