:0300000002009665
:0C009600787FE4F6D8FD75810A02000EA8
:0E008700E4FEEEC39F50077D0DDDFE0E80F4FB
:010095002248
:03000B00020049A7
:10004900C0E0C0D00508E508B40117750800050A25
:10005900E50A70020509641445097006F509F50AEF
:07006900B293D0D0D0E032C9
:10007000758902D2A9D2AF758C06758A06D28CE436
:07008000F509F50AD29322F5
:10000E00120070C290D291D29220A0157F6412007D
:10001E0087D290C29230A0FD7F64120087C290C238
:10002E009220A1E57F64120087D290D29230A1FD7A
:0B003E007F64120087C290D29280CE37
:00000001FF
